{
  "_format": "hh-sol-artifact-1",
  "contractName": "WavePortal",
  "sourceName": "contracts/WavePortal.sol",
  "abi": [
    {
      "inputs": [],
      "stateMutability": "nonpayable",
      "type": "constructor"
    },
    {
      "inputs": [
        {
          "internalType": "string",
          "name": "_link",
          "type": "string"
        }
      ],
      "name": "addLink",
      "outputs": [],
      "stateMutability": "nonpayable",
      "type": "function"
    },
    {
      "inputs": [
        {
          "internalType": "string",
          "name": "_link",
          "type": "string"
        }
      ],
      "name": "getLink",
      "outputs": [
        {
          "components": [
            {
              "internalType": "string",
              "name": "link",
              "type": "string"
            },
            {
              "internalType": "uint256",
              "name": "timestamp",
              "type": "uint256"
            },
            {
              "internalType": "uint256",
              "name": "waveCount",
              "type": "uint256"
            }
          ],
          "internalType": "struct WavePortal.Link",
          "name": "",
          "type": "tuple"
        }
      ],
      "stateMutability": "view",
      "type": "function"
    },
    {
      "inputs": [],
      "name": "getLinks",
      "outputs": [
        {
          "components": [
            {
              "internalType": "string",
              "name": "link",
              "type": "string"
            },
            {
              "internalType": "uint256",
              "name": "timestamp",
              "type": "uint256"
            },
            {
              "internalType": "uint256",
              "name": "waveCount",
              "type": "uint256"
            }
          ],
          "internalType": "struct WavePortal.Link[]",
          "name": "",
          "type": "tuple[]"
        }
      ],
      "stateMutability": "view",
      "type": "function"
    },
    {
      "inputs": [
        {
          "internalType": "string",
          "name": "_link",
          "type": "string"
        }
      ],
      "name": "getNumberOfWaveByLink",
      "outputs": [
        {
          "internalType": "uint256",
          "name": "",
          "type": "uint256"
        }
      ],
      "stateMutability": "view",
      "type": "function"
    },
    {
      "inputs": [],
      "name": "getTotalWaves",
      "outputs": [
        {
          "internalType": "uint256",
          "name": "",
          "type": "uint256"
        }
      ],
      "stateMutability": "view",
      "type": "function"
    },
    {
      "inputs": [],
      "name": "getWaves",
      "outputs": [
        {
          "components": [
            {
              "internalType": "address",
              "name": "waver",
              "type": "address"
            },
            {
              "components": [
                {
                  "internalType": "string",
                  "name": "link",
                  "type": "string"
                },
                {
                  "internalType": "uint256",
                  "name": "timestamp",
                  "type": "uint256"
                },
                {
                  "internalType": "uint256",
                  "name": "waveCount",
                  "type": "uint256"
                }
              ],
              "internalType": "struct WavePortal.Link",
              "name": "link",
              "type": "tuple"
            },
            {
              "internalType": "uint256",
              "name": "timestamp",
              "type": "uint256"
            }
          ],
          "internalType": "struct WavePortal.Wave[]",
          "name": "",
          "type": "tuple[]"
        }
      ],
      "stateMutability": "view",
      "type": "function"
    },
    {
      "inputs": [],
      "name": "resetWaves",
      "outputs": [],
      "stateMutability": "nonpayable",
      "type": "function"
    },
    {
      "inputs": [],
      "name": "wave",
      "outputs": [],
      "stateMutability": "nonpayable",
      "type": "function"
    },
    {
      "inputs": [
        {
          "internalType": "string",
          "name": "_link",
          "type": "string"
        }
      ],
      "name": "waveLink",
      "outputs": [],
      "stateMutability": "nonpayable",
      "type": "function"
    }
  ],
  "bytecode": "0x60806040523480156200001157600080fd5b506200005d6040518060400160405280601f81526020017f4920616d206120636f6e747261637420616e64204920616d20736d61727421008152506200006360201b62000b451760201c565b620001ed565b62000103816040516024016200007a9190620001c9565b6040516020818303038152906040527f41304fac000000000000000000000000000000000000000000000000000000007bffffffffffffffffffffffffffffffffffffffffffffffffffffffff19166020820180517bffffffffffffffffffffffffffffffffffffffffffffffffffffffff83818316178352505050506200010660201b60201c565b50565b60008151905060006a636f6e736f6c652e6c6f679050602083016000808483855afa5050505050565b600081519050919050565b600082825260208201905092915050565b60005b838110156200016b5780820151818401526020810190506200014e565b60008484015250505050565b6000601f19601f8301169050919050565b600062000195826200012f565b620001a181856200013a565b9350620001b38185602086016200014b565b620001be8162000177565b840191505092915050565b60006020820190508181036000830152620001e5818462000188565b905092915050565b611a3480620001fd6000396000f3fe608060405234801561001057600080fd5b50600436106100935760003560e01c80639a2cdc08116100665780639a2cdc08146100f8578063a9d42f7e14610116578063ad66435b14610134578063c78a295614610150578063f66ddcbb1461018057610093565b806322a618fa146100985780633f040214146100b45780636fe15b44146100be5780637476452a146100c8575b600080fd5b6100b260048036038101906100ad9190611047565b61019e565b005b6100bc610254565b005b6100c66102a2565b005b6100e260048036038101906100dd9190611047565b6103f1565b6040516100ef9190611178565b60405180910390f35b6101006105e1565b60405161010d91906111a9565b60405180910390f35b61011e610632565b60405161012b9190611367565b60405180910390f35b61014e60048036038101906101499190611047565b6107ab565b005b61016a60048036038101906101659190611047565b610945565b60405161017791906111a9565b60405180910390f35b610188610a02565b604051610195919061144b565b60405180910390f35b600060405180606001604052808381526020014281526020016000815250908060018154018082558091505060019003906000526020600020906003020160009091909190915060008201518160000190816101fa9190611679565b50602082015181600101556040820151816002015550506102516040518060400160405280601881526020017f2573206861732061646465642061206c696e6b203a20257300000000000000008152503383610bde565b50565b6102926040518060400160405280601581526020017f526573657474696e6720776176657320746f2030210000000000000000000000815250610b45565b600160006102a09190610dde565b565b600160405180606001604052803373ffffffffffffffffffffffffffffffffffffffff16815260200160405180606001604052806040518060200160405280600081525081526020014281526020016000815250815260200142815250908060018154018082558091505060019003906000526020600020906005020160009091909190915060008201518160000160006101000a81548173ffffffffffffffffffffffffffffffffffffffff021916908373ffffffffffffffffffffffffffffffffffffffff160217905550602082015181600101600082015181600001908161038d9190611679565b50602082015181600101556040820151816002015550506040820151816004015550506103ef6040518060400160405280600d81526020017f257320686173207761766564210000000000000000000000000000000000000081525033610c7d565b565b6103f9610e02565b6104376040518060400160405280600c81526020017f47657474696e67206c696e6b0000000000000000000000000000000000000000815250610b45565b60005b6000805490508110156105ac57826040516020016104589190611787565b60405160208183030381529060405280519060200120600082815481106104825761048161179e565b5b90600052602060002090600302016000016040516020016104a39190611850565b604051602081830303815290604052805190602001200361059957600081815481106104d2576104d161179e565b5b90600052602060002090600302016040518060600160405290816000820180546104fb9061149c565b80601f01602080910402602001604051908101604052809291908181526020018280546105279061149c565b80156105745780601f1061054957610100808354040283529160200191610574565b820191906000526020600020905b81548152906001019060200180831161055757829003601f168201915b50505050508152602001600182015481526020016002820154815250509150506105dc565b80806105a490611896565b91505061043a565b50604051806060016040528060405180602001604052806000815250815260200160008152602001600081525090505b919050565b60006106276040518060400160405280601781526020017f5765206861766520256420746f74616c20776176657321000000000000000000815250600180549050610d19565b600180549050905090565b60606001805480602002602001604051908101604052809291908181526020016000905b828210156107a257838290600052602060002090600502016040518060600160405290816000820160009054906101000a900473ffffffffffffffffffffffffffffffffffffffff1673ffffffffffffffffffffffffffffffffffffffff1673ffffffffffffffffffffffffffffffffffffffff168152602001600182016040518060600160405290816000820180546106ef9061149c565b80601f016020809104026020016040519081016040528092919081815260200182805461071b9061149c565b80156107685780601f1061073d57610100808354040283529160200191610768565b820191906000526020600020905b81548152906001019060200180831161074b57829003601f168201915b5050505050815260200160018201548152602001600282015481525050815260200160048201548152505081526020019060010190610656565b50505050905090565b60006107b6826103f1565b9050600081602001511461090257600160405180606001604052803373ffffffffffffffffffffffffffffffffffffffff16815260200183815260200142815250908060018154018082558091505060019003906000526020600020906005020160009091909190915060008201518160000160006101000a81548173ffffffffffffffffffffffffffffffffffffffff021916908373ffffffffffffffffffffffffffffffffffffffff16021790555060208201518160010160008201518160000190816108859190611679565b50602082015181600101556040820151816002015550506040820151816004015550508060400180518091906108ba90611896565b815250506108fd6040518060400160405280600d81526020017f257320686173207761766564210000000000000000000000000000000000000081525033610c7d565b610941565b6109406040518060400160405280600e81526020017f4c696e6b206e6f7420666f756e64000000000000000000000000000000000000815250610b45565b5b5050565b6000806000905060005b6001805490508110156109f8578360405160200161096d9190611787565b60405160208183030381529060405280519060200120600182815481106109975761099661179e565b5b90600052602060002090600502016001016000016040516020016109bb9190611850565b60405160208183030381529060405280519060200120036109e55781806109e190611896565b9250505b80806109f090611896565b91505061094f565b5080915050919050565b6060610a426040518060400160405280600d81526020017f47657474696e67206c696e6b7300000000000000000000000000000000000000815250610b45565b6000805480602002602001604051908101604052809291908181526020016000905b82821015610b3c5783829060005260206000209060030201604051806060016040529081600082018054610a979061149c565b80601f0160208091040260200160405190810160405280929190818152602001828054610ac39061149c565b8015610b105780601f10610ae557610100808354040283529160200191610b10565b820191906000526020600020905b815481529060010190602001808311610af357829003601f168201915b505050505081526020016001820154815260200160028201548152505081526020019060010190610a64565b50505050905090565b610bdb81604051602401610b599190611928565b6040516020818303038152906040527f41304fac000000000000000000000000000000000000000000000000000000007bffffffffffffffffffffffffffffffffffffffffffffffffffffffff19166020820180517bffffffffffffffffffffffffffffffffffffffffffffffffffffffff8381831617835250505050610db5565b50565b610c78838383604051602401610bf693929190611959565b6040516020818303038152906040527fe0e9ad4f000000000000000000000000000000000000000000000000000000007bffffffffffffffffffffffffffffffffffffffffffffffffffffffff19166020820180517bffffffffffffffffffffffffffffffffffffffffffffffffffffffff8381831617835250505050610db5565b505050565b610d158282604051602401610c9392919061199e565b6040516020818303038152906040527f319af333000000000000000000000000000000000000000000000000000000007bffffffffffffffffffffffffffffffffffffffffffffffffffffffff19166020820180517bffffffffffffffffffffffffffffffffffffffffffffffffffffffff8381831617835250505050610db5565b5050565b610db18282604051602401610d2f9291906119ce565b6040516020818303038152906040527fb60e72cc000000000000000000000000000000000000000000000000000000007bffffffffffffffffffffffffffffffffffffffffffffffffffffffff19166020820180517bffffffffffffffffffffffffffffffffffffffffffffffffffffffff8381831617835250505050610db5565b5050565b60008151905060006a636f6e736f6c652e6c6f679050602083016000808483855afa5050505050565b5080546000825560050290600052602060002090810190610dff9190610e23565b50565b60405180606001604052806060815260200160008152602001600081525090565b5b80821115610e8c57600080820160006101000a81549073ffffffffffffffffffffffffffffffffffffffff02191690556001820160008082016000610e699190610e90565b600182016000905560028201600090555050600482016000905550600501610e24565b5090565b508054610e9c9061149c565b6000825580601f10610eae5750610ecd565b601f016020900490600052602060002090810190610ecc9190610ed0565b5b50565b5b80821115610ee9576000816000905550600101610ed1565b5090565b6000604051905090565b600080fd5b600080fd5b600080fd5b600080fd5b6000601f19601f8301169050919050565b7f4e487b7100000000000000000000000000000000000000000000000000000000600052604160045260246000fd5b610f5482610f0b565b810181811067ffffffffffffffff82111715610f7357610f72610f1c565b5b80604052505050565b6000610f86610eed565b9050610f928282610f4b565b919050565b600067ffffffffffffffff821115610fb257610fb1610f1c565b5b610fbb82610f0b565b9050602081019050919050565b82818337600083830152505050565b6000610fea610fe584610f97565b610f7c565b90508281526020810184848401111561100657611005610f06565b5b611011848285610fc8565b509392505050565b600082601f83011261102e5761102d610f01565b5b813561103e848260208601610fd7565b91505092915050565b60006020828403121561105d5761105c610ef7565b5b600082013567ffffffffffffffff81111561107b5761107a610efc565b5b61108784828501611019565b91505092915050565b600081519050919050565b600082825260208201905092915050565b60005b838110156110ca5780820151818401526020810190506110af565b60008484015250505050565b60006110e182611090565b6110eb818561109b565b93506110fb8185602086016110ac565b61110481610f0b565b840191505092915050565b6000819050919050565b6111228161110f565b82525050565b6000606083016000830151848203600086015261114582826110d6565b915050602083015161115a6020860182611119565b50604083015161116d6040860182611119565b508091505092915050565b600060208201905081810360008301526111928184611128565b905092915050565b6111a38161110f565b82525050565b60006020820190506111be600083018461119a565b92915050565b600081519050919050565b600082825260208201905092915050565b6000819050602082019050919050565b600073ffffffffffffffffffffffffffffffffffffffff82169050919050565b600061121b826111f0565b9050919050565b61122b81611210565b82525050565b6000606083016000830151848203600086015261124e82826110d6565b91505060208301516112636020860182611119565b5060408301516112766040860182611119565b508091505092915050565b60006060830160008301516112996000860182611222565b50602083015184820360208601526112b18282611231565b91505060408301516112c66040860182611119565b508091505092915050565b60006112dd8383611281565b905092915050565b6000602082019050919050565b60006112fd826111c4565b61130781856111cf565b935083602082028501611319856111e0565b8060005b85811015611355578484038952815161133685826112d1565b9450611341836112e5565b925060208a0199505060018101905061131d565b50829750879550505050505092915050565b6000602082019050818103600083015261138181846112f2565b905092915050565b600081519050919050565b600082825260208201905092915050565b6000819050602082019050919050565b60006113c18383611231565b905092915050565b6000602082019050919050565b60006113e182611389565b6113eb8185611394565b9350836020820285016113fd856113a5565b8060005b85811015611439578484038952815161141a85826113b5565b9450611425836113c9565b925060208a01995050600181019050611401565b50829750879550505050505092915050565b6000602082019050818103600083015261146581846113d6565b905092915050565b7f4e487b7100000000000000000000000000000000000000000000000000000000600052602260045260246000fd5b600060028204905060018216806114b457607f821691505b6020821081036114c7576114c661146d565b5b50919050565b60008190508160005260206000209050919050565b60006020601f8301049050919050565b600082821b905092915050565b60006008830261152f7fffffffffffffffffffffffffffffffffffffffffffffffffffffffffffffffff826114f2565b61153986836114f2565b95508019841693508086168417925050509392505050565b6000819050919050565b600061157661157161156c8461110f565b611551565b61110f565b9050919050565b6000819050919050565b6115908361155b565b6115a461159c8261157d565b8484546114ff565b825550505050565b600090565b6115b96115ac565b6115c4818484611587565b505050565b5b818110156115e8576115dd6000826115b1565b6001810190506115ca565b5050565b601f82111561162d576115fe816114cd565b611607846114e2565b81016020851015611616578190505b61162a611622856114e2565b8301826115c9565b50505b505050565b600082821c905092915050565b600061165060001984600802611632565b1980831691505092915050565b6000611669838361163f565b9150826002028217905092915050565b61168282611090565b67ffffffffffffffff81111561169b5761169a610f1c565b5b6116a5825461149c565b6116b08282856115ec565b600060209050601f8311600181146116e357600084156116d1578287015190505b6116db858261165d565b865550611743565b601f1984166116f1866114cd565b60005b82811015611719578489015182556001820191506020850194506020810190506116f4565b868310156117365784890151611732601f89168261163f565b8355505b6001600288020188555050505b505050505050565b600081905092915050565b600061176182611090565b61176b818561174b565b935061177b8185602086016110ac565b80840191505092915050565b60006117938284611756565b915081905092915050565b7f4e487b7100000000000000000000000000000000000000000000000000000000600052603260045260246000fd5b600081546117da8161149c565b6117e4818661174b565b945060018216600081146117ff576001811461181457611847565b60ff1983168652811515820286019350611847565b61181d856114cd565b60005b8381101561183f57815481890152600182019150602081019050611820565b838801955050505b50505092915050565b600061185c82846117cd565b915081905092915050565b7f4e487b7100000000000000000000000000000000000000000000000000000000600052601160045260246000fd5b60006118a18261110f565b91507fffffffffffffffffffffffffffffffffffffffffffffffffffffffffffffffff82036118d3576118d2611867565b5b600182019050919050565b600082825260208201905092915050565b60006118fa82611090565b61190481856118de565b93506119148185602086016110ac565b61191d81610f0b565b840191505092915050565b6000602082019050818103600083015261194281846118ef565b905092915050565b61195381611210565b82525050565b6000606082019050818103600083015261197381866118ef565b9050611982602083018561194a565b818103604083015261199481846118ef565b9050949350505050565b600060408201905081810360008301526119b881856118ef565b90506119c7602083018461194a565b9392505050565b600060408201905081810360008301526119e881856118ef565b90506119f7602083018461119a565b939250505056fea2646970667358221220a8de6cfa320ed74805967d2e6f75be52a69fbd758859bbf1a0435fe7c1b3720c64736f6c63430008110033",
  "linkReferences": {},
  "deployedLinkReferences": {}
}